{
  "_format": "hh-sol-artifact-1",
  "contractName": "Transactions",
  "sourceName": "contracts/Transaction.sol",
  "abi": [
    {
      "anonymous": false,
      "inputs": [
        {
          "indexed": false,
          "internalType": "address",
          "name": "sender",
          "type": "address"
        },
        {
          "indexed": false,
          "internalType": "address",
          "name": "receiver",
          "type": "address"
        },
        {
          "indexed": false,
          "internalType": "uint256",
          "name": "amount",
          "type": "uint256"
        },
        {
          "indexed": false,
          "internalType": "string",
          "name": "message",
          "type": "string"
        },
        {
          "indexed": false,
          "internalType": "uint256",
          "name": "timestamp",
          "type": "uint256"
        },
        {
          "indexed": false,
          "internalType": "string",
          "name": "keyword",
          "type": "string"
        }
      ],
      "name": "Transfer",
      "type": "event"
    },
    {
      "inputs": [
        {
          "internalType": "address payable",
          "name": "receiver",
          "type": "address"
        },
        {
          "internalType": "string",
          "name": "message",
          "type": "string"
        },
        {
          "internalType": "string",
          "name": "keyword",
          "type": "string"
        }
      ],
      "name": "addToBlockchain",
      "outputs": [],
      "stateMutability": "payable",
      "type": "function"
    },
    {
      "inputs": [],
      "name": "getAllTransactions",
      "outputs": [
        {
          "components": [
            {
              "internalType": "address",
              "name": "sender",
              "type": "address"
            },
            {
              "internalType": "address",
              "name": "receiver",
              "type": "address"
            },
            {
              "internalType": "uint256",
              "name": "amount",
              "type": "uint256"
            },
            {
              "internalType": "string",
              "name": "message",
              "type": "string"
            },
            {
              "internalType": "uint256",
              "name": "timestamp",
              "type": "uint256"
            },
            {
              "internalType": "string",
              "name": "keyword",
              "type": "string"
            }
          ],
          "internalType": "struct Transactions.TransferStruct[]",
          "name": "",
          "type": "tuple[]"
        }
      ],
      "stateMutability": "view",
      "type": "function"
    },
    {
      "inputs": [],
      "name": "getTransactionCount",
      "outputs": [
        {
          "internalType": "uint256",
          "name": "",
          "type": "uint256"
        }
      ],
      "stateMutability": "view",
      "type": "function"
    }
  ],
  "bytecode": "0x608060405234801561001057600080fd5b50610c20806100206000396000f3fe6080604052600436106100345760003560e01c806327506f53146100395780632e7700f01461006457806396a4550c1461008f575b600080fd5b34801561004557600080fd5b5061004e6100ab565b60405161005b91906108e3565b60405180910390f35b34801561007057600080fd5b506100796102ee565b6040516100869190610905565b60405180910390f35b6100a960048036038101906100a4919061061f565b6102f7565b005b60606001805480602002602001604051908101604052809291908181526020016000905b828210156102e557838290600052602060002090600602016040518060c00160405290816000820160009054906101000a900473ffffffffffffffffffffffffffffffffffffffff1673ffffffffffffffffffffffffffffffffffffffff1673ffffffffffffffffffffffffffffffffffffffff1681526020016001820160009054906101000a900473ffffffffffffffffffffffffffffffffffffffff1673ffffffffffffffffffffffffffffffffffffffff1673ffffffffffffffffffffffffffffffffffffffff168152602001600282015481526020016003820180546101b890610b03565b80601f01602080910402602001604051908101604052809291908181526020018280546101e490610b03565b80156102315780601f1061020657610100808354040283529160200191610231565b820191906000526020600020905b81548152906001019060200180831161021457829003601f168201915b505050505081526020016004820154815260200160058201805461025490610b03565b80601f016020809104026020016040519081016040528092919081815260200182805461028090610b03565b80156102cd5780601f106102a2576101008083540402835291602001916102cd565b820191906000526020600020905b8154815290600101906020018083116102b057829003601f168201915b505050505081525050815260200190600101906100cf565b50505050905090565b60008054905090565b600160008082825461030991906109e7565b9250508190555060016040518060c001604052803373ffffffffffffffffffffffffffffffffffffffff1681526020018573ffffffffffffffffffffffffffffffffffffffff16815260200134815260200184815260200142815260200183815250908060018154018082558091505060019003906000526020600020906006020160009091909190915060008201518160000160006101000a81548173ffffffffffffffffffffffffffffffffffffffff021916908373ffffffffffffffffffffffffffffffffffffffff16021790555060208201518160010160006101000a81548173ffffffffffffffffffffffffffffffffffffffff021916908373ffffffffffffffffffffffffffffffffffffffff1602179055506040820151816002015560608201518160030190805190602001906104489291906104ff565b506080820151816004015560a082015181600501908051906020019061046f9291906104ff565b5050508273ffffffffffffffffffffffffffffffffffffffff166108fc349081150290604051600060405180830381858888f193505050501580156104b8573d6000803e3d6000fd5b507f416cfa4330a4565f45c2fd2dd4826a83a37443aba2ce6f79477c7355afac35fa3384348542866040516104f296959493929190610874565b60405180910390a1505050565b82805461050b90610b03565b90600052602060002090601f01602090048101928261052d5760008555610574565b82601f1061054657805160ff1916838001178555610574565b82800160010185558215610574579182015b82811115610573578251825591602001919060010190610558565b5b5090506105819190610585565b5090565b5b8082111561059e576000816000905550600101610586565b5090565b60006105b56105b084610951565b610920565b9050828152602081018484840111156105cd57600080fd5b6105d8848285610ac1565b509392505050565b6000813590506105ef81610bd3565b92915050565b600082601f83011261060657600080fd5b81356106168482602086016105a2565b91505092915050565b60008060006060848603121561063457600080fd5b6000610642868287016105e0565b935050602084013567ffffffffffffffff81111561065f57600080fd5b61066b868287016105f5565b925050604084013567ffffffffffffffff81111561068857600080fd5b610694868287016105f5565b9150509250925092565b60006106aa83836107c6565b905092915050565b6106bb81610a8b565b82525050565b6106ca81610a3d565b82525050565b6106d981610a3d565b82525050565b60006106ea82610991565b6106f481856109b4565b93508360208202850161070685610981565b8060005b858110156107425784840389528151610723858261069e565b945061072e836109a7565b925060208a0199505060018101905061070a565b50829750879550505050505092915050565b600061075f8261099c565b61076981856109c5565b9350610779818560208601610ad0565b61078281610bc2565b840191505092915050565b60006107988261099c565b6107a281856109d6565b93506107b2818560208601610ad0565b6107bb81610bc2565b840191505092915050565b600060c0830160008301516107de60008601826106c1565b5060208301516107f160208601826106c1565b5060408301516108046040860182610856565b506060830151848203606086015261081c8282610754565b91505060808301516108316080860182610856565b5060a083015184820360a08601526108498282610754565b9150508091505092915050565b61085f81610a81565b82525050565b61086e81610a81565b82525050565b600060c08201905061088960008301896106d0565b61089660208301886106b2565b6108a36040830187610865565b81810360608301526108b5818661078d565b90506108c46080830185610865565b81810360a08301526108d6818461078d565b9050979650505050505050565b600060208201905081810360008301526108fd81846106df565b905092915050565b600060208201905061091a6000830184610865565b92915050565b6000604051905081810181811067ffffffffffffffff8211171561094757610946610b93565b5b8060405250919050565b600067ffffffffffffffff82111561096c5761096b610b93565b5b601f19601f8301169050602081019050919050565b6000819050602082019050919050565b600081519050919050565b600081519050919050565b6000602082019050919050565b600082825260208201905092915050565b600082825260208201905092915050565b600082825260208201905092915050565b60006109f282610a81565b91506109fd83610a81565b9250827fffffffffffffffffffffffffffffffffffffffffffffffffffffffffffffffff03821115610a3257610a31610b35565b5b828201905092915050565b6000610a4882610a61565b9050919050565b6000610a5a82610a61565b9050919050565b600073ffffffffffffffffffffffffffffffffffffffff82169050919050565b6000819050919050565b6000610a9682610a9d565b9050919050565b6000610aa882610aaf565b9050919050565b6000610aba82610a61565b9050919050565b82818337600083830152505050565b60005b83811015610aee578082015181840152602081019050610ad3565b83811115610afd576000848401525b50505050565b60006002820490506001821680610b1b57607f821691505b60208210811415610b2f57610b2e610b64565b5b50919050565b7f4e487b7100000000000000000000000000000000000000000000000000000000600052601160045260246000fd5b7f4e487b7100000000000000000000000000000000000000000000000000000000600052602260045260246000fd5b7f4e487b7100000000000000000000000000000000000000000000000000000000600052604160045260246000fd5b6000601f19601f8301169050919050565b610bdc81610a4f565b8114610be757600080fd5b5056fea264697066735822122051bbb63af38f55d951bce94df1225dba54daff8579af2996d24e601b08a3a64564736f6c63430008000033",
  "linkReferences": {},
  "deployedLinkReferences": {}
}